:020000040800F2
:10000000D81500207D020008552E00087929000827
:10001000512E0008110800089D4D00080000000046
:10002000000000000000000000000000692E000831
:100030001508000800000000652E00086D2E00085D
:10004000970200089702000897020008970200082C
:10005000970200089702000897020008970200081C
:10006000970200089702000897020008970200080C
:1000700097020008970200089702000897020008FC
:10008000970200089702000897020008000000008D
:1000900000000000000000000000000097020008BF
:1000A00097020008970200089702000897020008CC
:1000B00097020008970200089702000897020008BC
:1000C00097020008970200089702000897020008AC
:1000D000970200089702000897020008000000003D
:1000E000970200089702000897020008000000002D
:1000F000000000000000000000000000970200085F
:100100000000000097020008352F00089702000841
:1001100000000000000000000000000000000000DF
:10012000970200089702000897020008970200084B
:10013000970200080000000000000000000000001E
:10014000000000000000000000000000592E000820
:10015000970200089702000897020008970200081B
:10016000970200089702000800000000000000004D
:10017000000000000000000000000000000000007F
:1001800000000000970200080000000000000000CE
:100190009702000800F002F800F061F80AA090E869
:1001A000000C82448344AAF10107DA4501D100F032
:1001B00056F8AFF2090EBAE80F0013F0010F18BF9E
:1001C000FB1A43F001031847E467000004680000CD
:1001D0000A444FF0000C10F8013B13F0070408BF6D
:1001E00010F8014B1D1108BF10F8015B641E05D00B
:1001F00010F8016B641E01F8016BF9D113F0080FC0
:100200001EBF10F8014BAD1C0C1B09D16D1E58BF51
:1002100001F801CBFAD505E014F8016B01F8016B88
:100220006D1EF9D59142D6D37047000000230024FB
:1002300000250026103A28BF78C1FBD8520728BFF6
:1002400030C148BF0B607047642900F02581002051
:1002500070471FB505F0A9FC1FBD10B510BD00F01B
:100260009CFA1146FFF7F5FF04F09AFD00F0BAFA88
:1002700003B4FFF7F2FF03BC00F0C2FA094880475D
:1002800009480047FEE7FEE7FEE7FEE7FEE7FEE778
:10029000FEE7FEE7FEE7FEE704480549054A064B90
:1002A00070470000212F000895010008D80F00209A
:1002B000D8150020D8110020D811002053EA020CD4
:1002C00000F069802DE9F04B4FF00006002B1FBFB6
:1002D000B3FA83F503FA05F424FA05F65E4012BF7B
:1002E0001643B2FA82F502FA05F4C5F120051EBFE5
:1002F00022FA05FC44EA0C04203556EA044C4FEA85
:10030000144418BF641C4FF000084FF000099042DD
:1003100071EB030C39D3002919BFB1FA81F701FA47
:1003200007F6B0FA80F700FA07F6C7F120071EBFFC
:1003300020FA07FC46EA0C062037B6FBF4FCA7EBD4
:100340000507103F07F01F0BCBF120062CFA06F62D
:100350000CFA0BFB44BFB3460026202FA4BF5E4619
:100360004FF0000B5BEA060C08BF4FF0010B19EBD6
:100370000B0948EB0608ABFB027C06FB02CC0BFB2F
:1003800003CCC01B71EB0C01C1E70B460246414692
:100390004846BDE8F08B13B5084318BF4FF0FF3057
:1003A0000146AFF30080BDE81C40704753EA020CE1
:1003B00023D010B54C1084EA530404D54042C1F157
:1003C000000138BF491E1B4204D55242C3F100034D
:1003D00038BF5B1EFFF772FF14F0804F04D040421D
:1003E000C1F1000138BF491E14F0004F04D0524241
:1003F000C3F1000338BF5B1E10BD13B540424FF080
:10040000000070EB0104B8BF012001F0004100289A
:100410001CBF6FF000414FF0FF30AFF300801CBDF8
:100420000FB41CB5074B06AA7B446946009005989B
:1004300000F09BF90020694600F0AAF91CBC5DF8A9
:1004400014FB00006503000070B504468569006870
:10045000C10601D5302600E02026C00707D070BDB8
:10046000D4E9012130469047206A401C20626D1E6D
:10047000F6D570BD70B5044685690078C00707D110
:1004800070BDD4E9012120209047206A401C2062E1
:100490006D1EF6D570BD00002DE9F0410646002422
:1004A00010687529314616A510D0AFF300800028DA
:1004B00002DA404213A507E031688A0701D512A588
:1004C00002E0490704D511A5012401E0AFF3008043
:1004D00000210A2206F1240709E0B0FBF2FCB0FB80
:1004E000F2F302FB1C00303078541846491C0028F7
:1004F000F3D123462A463046BDE8F04100F0D6B895
:10050000000000002D0000002B0000002000000073
:100510002DE9F05F894604464FF0000ADFF824B168
:10052000FB44C0F820A02046E168884700287DD021
:10053000252806D0D4E901219047206A401C20627A
:10054000F1E700255F462046E168884720280646F7
:1005500007DB312E05D2B81910F8200C08B105437D
:10056000F1E7A80701D525F00405C4F81CA0002771
:10057000C4F818A02A2E09D0304605F099FA38B3ED
:1005800004EB8708303EC8F8186019E059F8041BDE
:10059000204604EB87029161E1688847012F0646F7
:1005A00018D1E069002820DA25F020051DE0D8F8F0
:1005B000180000EB800006EB40003038C8F8180047
:1005C0002046E1688847064605F072FA0028EED119
:1005D000012F0AD02E2E08D12046E16888477F1CC3
:1005E0000646022F45F02005C4DBA069002803DA87
:1005F000404245F00105A061E80701D025F0100553
:10060000A6B1A6F14100192802D8203645F40065AC
:100610004A463146204625604D46FFF715FE60B13B
:10062000012807D0ED1D25F0070000E007E000F1EC
:10063000080978E705F1040975E730467AE7206A8A
:10064000BDE8F09F0057000002F0FF0343EA0322D9
:1006500042EA024200F002B84FF0000200B5134631
:1006600094469646203922BFA0E80C50A0E80C50D2
:10067000B1F12001BFF4F7AF090728BFA0E80C5083
:1006800048BF0CC05DF804EB890028BF40F8042B7C
:1006900008BF704748BF20F8022B11F0804F18BFE9
:1006A00000F8012B70477047704770472DE9F047FD
:1006B0000D4699469246044600F1240801688806D2
:1006C00004D5E06921F01001216000E00120A8427A
:1006D00001DD471B00E00027A1697A1902EB090040
:1006E000081AA0612078C00602D42046FFF7ACFEAD
:1006F000002608E0D4E901211AF806009047206A94
:10070000401C761C20624E45F4DB2078C0060AD5DA
:100710002046FFF799FE06E0D4E9012130209047FA
:10072000206A401C2062381EA7F10107F4DC07E0B4
:10073000D4E9012118F805009047206A401C206286
:10074000281EA5F10105F3DC2046FFF793FE207873
:10075000000602D50220BDE8F0870120FBE700007B
:1007600001694A1C02610878704700B58FB0CDE975
:1007700001310021059105497944CDE90310114665
:100780006846FFF7C5FE0FB000BD0000E5FFFFFFA4
:100790000A6802F8010B0A607047754600F02CF8F1
:1007A000AE4605006946534620F00700854618B05E
:1007B00020B5FFF771FDBDE820404FF000064FF077
:1007C00000074FF000084FF0000BAC46ACE8C00942
:1007D000ACE8C009ACE8C009ACE8C00921F00701E9
:1007E0008D46704710B50446AFF300802046BDE843
:1007F0001040FFF73DBD0000004870476801002031
:1008000001491820ABBEFEE7260002007047000039
:10081000FEE7000070470000EFF3108072B600BFE3
:10082000FEE70000B0B5044600F002F9054640F2CC
:100830000400C2F200000078611C18BF044400BF2D
:1008400000F0F6F8401BA042FAD3B0BD2DE9F04FFE
:1008500082B000F13E4241F2000502F1FF77C4F29E
:10086000020507224FEAB726A84208BF0422042E39
:1008700038BF4FEAB7224FF0010E002400274FF097
:100880000008009208E000BF023708F10108202F9D
:1008900004F1040400F0B4800E680EFA08F916EAB8
:1008A000090FF1D0D1F804A00AF0030BABF1010657
:1008B000012E19D80322866802FA07FECA6826EAC2
:1008C0000E06BA40324382604268CAF3001522EA3B
:1008D000090205FA08F54FEA480C6FEA0E064FF0D8
:1008E000010E2A4342600BE00322BA40D643BBF11B
:1008F000030FBC4604D1BC464FF0030B24E000BFFD
:10090000C2688D68324005FA0CF52A43BBF1020F2C
:10091000C26019D16FF0030202EA5802024404F0E7
:100920001C030F25D2F820E005FA03FA0D692EEA20
:100930000A0E05FA03F343EA0E031362D1F804A08A
:100940004FF0010E0AF0030B02680BFA0CF3324071
:100950001A431AF4403F026096D0002243F6440343
:100960000192C4F202031A6843F6004C42F480423A
:100970001A601A68C4F2010C02F480420192019AD2
:1009800028F003024FF6084A6244CFF6FF7A52F885
:100990000A3004F00C060F25B540AB43009D05FA64
:1009A00006F6334342F80A30DCF800204B6842EA8E
:1009B0000906DD0358BF22EA0906CCF80060DCF81E
:1009C00004209D0342EA090658BF22EA0906CCF832
:1009D0000460DCF80820DD0242EA090643F60C4513
:1009E00058BF22EA0906CCF80860C4F201052A685B
:1009F0009B0242EA090658BF22EA09062E6043E735
:100A000002B0BDE8F08F00000069084018BF012067
:100A100070470000426902EA0103914341EA034141
:100A200081617047002A08BF090481617047000096
:100A300040F6D470C2F200000068704770B5B8B3D9
:100A4000044690F83D0028B9002084F83C00204678
:100A500000F09EF9242084F83D002068016821F010
:100A600001010160016841F400410160016821F465
:100A70000041016001F03EFA48F28041C0F21E01DF
:100A800040F60013D4F804E088424FF00001C0F2B1
:100A90003D0348F2A16C4FF0000238BF012198429B
:100AA000C0F2010C38BF0122E64538BF0A460AB140
:100AB000012070BD4DF68361C4F21B31A0FB011211
:100AC0002168950C4B684FF4967623F03F0343EA78
:100AD0009243754344F6D3564B60C1F262060B6AEB
:100AE000A5FB0656B50923F03F03E64538BF950C34
:100AF0006A1C1A430A62CA6948F2A0664CF6FF7380
:100B0000C0F20106B64522EA03020BD801384FEACB
:100B10004E03B0FBF3F001306FF31F30042898BF91
:100B200004201EE0A368013863B119230EFB03F310
:100B3000B0FBF3F001306FF31F3078B100F5804067
:100B400008E000BF0EEB4E03B0FBF3F001306FF393
:100B50001F3028B100F5004003E000BF012000E095
:100B600001201043C8610868D4E9072320F0C000C1
:100B7000104318430860886848F2FF3204F10C06FD
:100B800090434CCE18431043A5698860C86820F094
:100B9000FF0030432843C860086840F00100086047
:100BA00000202021206484F83D10206384F83E005A
:100BB00070BD00002DE9F04383B0994616460F46FC
:100BC0000446FFF735FF94F83D1020291CD1054657
:100BD00020688169890713D5FFF72AFF401B192870
:100BE000F6D900202021206384F83D1084F83E00CF
:100BF000216C41F02001216484F83C0004E000BF36
:100C000094F83C10012903D1022003B0BDE8F08321
:100C1000012284F83C200368DDE90B180A9ADB07FF
:100C200003D1036843F001030360036823F4006306
:100C30000360212084F83D00402084F83E0000201D
:100C4000206462626185608D394620850020CFF680
:100C5000FF70E062204632464B46CDF80080019599
:100C600001F08CFE20B1012003B0BDE8F08300BF8D
:100C7000208D002850D0206808F10106014651F867
:100C8000142F12062CD49EB1B8F1000F5AD000BF19
:100C9000086840055ED4FFF7CBFE401B404556D8A0
:100CA0002068014651F8142F1206F1D518E000BF54
:100CB0000A6852054ED40A68120611D40A68520511
:100CC00048D40A6812060BD40A68520542D40A684E
:100CD000120605D40A6852053CD40A681206E7D504
:100CE000626A114611F8013B0361238D6162591E4E
:100CF0002185678D013F678547697F070AD50F0406
:100D000008D051780161911C6162991E2185628D24
:100D1000013A62850904B1D1204641462A4601F0D4
:100D200067FF38BB2068016841F400710160202032
:100D300084F83D00002084F83E0084F83C0003B0B5
:100D4000BDE8F0830868400504D4FFF771FE202059
:100D500004E000BF6FF480600860042000212022BE
:100D6000216384F83D2084F83E10226C10432064F7
:100D700084F83C10206C04287FF475AF206801686B
:100D800041F400710160012003B0BDE8F083000070
:100D9000B0B586B0016845F20040C4F2000081425F
:100DA00002D006B0B0BD00BF002443F63005019468
:100DB000C4F20205296800F5D83041F0020129602B
:100DC000296801F00201019101994FF440710191EC
:100DD0001221CDE90214032104910421059101A9F6
:100DE000FFF734FD0094286940F400102861286959
:100DF00000F400100090009806B0B0BD40F204006E
:100E000040F6D471C2F20000C2F2000100780A6814
:100E1000104408607047000080B543F60040C4F2FB
:100E20000200016841F400710160016841F48061D1
:100E30000160016841F480710160032000F098F8BE
:100E40000F2000F005F800F027F8002080BD00001A
:100E500070B540F20406C2F2000640F27C0132781E
:100E6000C2F200014FF47A730968B3FBF2F2044650
:100E7000B1FBF2F1084601F043FA0F2C4FF00105E7
:100E800008D838B94FF0FF3021460022002500F085
:100E900043F87460284670BD82B0002043F64001DC
:100EA0000190C4F202014A6842F480424A604A68F2
:100EB00002F480420192019A0090086840F080504C
:100EC0000860086800F080500090009802B07047F9
:100ED000002848BF704700F01F01012202FA01F10B
:100EE0004EF280124009CEF2000242F82010BFF309
:100EF0004F8FBFF36F8F7047002848BF704700F0D7
:100F00001F01012202FA01F14EF200124009CEF255
:100F1000000242F82010704710B54EF60C5CCEF27D
:100F2000000CDCF80030C3F3022E8EF00704042C12
:100F300028BF0424BEF103034FF0FF3E0EFA04F471
:100F400038BF0023A14399400EFA03F39A4311439B
:100F500000F00F02043A624409010C3200F16043D0
:100F6000B0F1FF3FC8BF03F56442117010BD00002F
:100F70004EF60C51CEF200010A684FF6FF031A40FC
:100F800060F30A2242F0806040F0FD700860704714
:100F90007047000002680020516270472DE9F0435D
:100FA000D0F80090D9F82400A1B1D9F82830B1F1D7
:100FB000010800EB13435DD0A8F10100C0B2032883
:100FC00008F0030C0ED24FF0010E0027BCF1000F09
:100FD00033D14FE040EA0240C9F828000020BDE8C4
:100FE000F08300BF08F0FC0E09F1F404002009F5BD
:100FF000827500BF54F8107F064603EB174046F099
:101000000103DBB246F0020755F82330FFB255F872
:10101000277000EB134000EB174346F00300C0B20B
:1010200055F82010301DC7B2774503EB1143E1D1CD
:1010300006F1050EBCF1000F1CD009EB8700D0F8BB
:101040000401BCF1010F03EB104313D05FFA8EF0E3
:1010500009EB8000D0F80401BCF1020F03EB104350
:1010600008D00EF10100C0B209EB8000D0F80401F5
:1010700003EB104343EA024009EB8801C1F8040185
:101080000020BDE8F0830000D0F8040402F0E8BAC4
:10109000C1EBC102D0F8043400EB8200826C184628
:1010A00002F052BAC1EBC102D0F8043400EB820066
:1010B000D0F80822184602F09BBA0000D0F80404C9
:1010C00002F0D0BA10B50446080601F00F00C0EBDC
:1010D000C00104EB810205D402F5FE71002382F801
:1010E000FD3104E0012302F13C0182F83D3094F827
:1010F000BC230870012A04BF022010BD2068012211
:1011000084F8BC2303F022F8002084F8BC0310BD4F
:10111000B0B54268044601F00F00904284BF012040
:10112000B0BD09060AD4C0EBC00104EB810202F590
:10113000FE71002382F8FD3109E000BFC0EBC00161
:1011400004EB8102012302F13C0182F83D3094F866
:10115000BC230025012A8D70087004BF0220B0BD99
:101160002068012284F8BC2303F0F2FA284684F8B0
:10117000BC53B0BDB0B50546080601F00F00C0EB8A
:10118000C00105EB810C05D40CF5FE7100248CF830
:10119000FD4104E001240CF13C018CF83D404C7809
:1011A0000870002C8A60CB7018BFC880022B04BF67
:1011B0000020087195F8BC03012804BF0220B0BDCF
:1011C0002868012285F8BC2302F08AFE002085F8F9
:1011D000BC03B0BD10B501F00F0CCCEBCC0100EBA3
:1011E00081044FF0000EC4F814E284F8FDE1D0F859
:1011F00010E0C4F80822C4F81032BEF1010F84F8E0
:10120000FCC108BFC4F80C22006804F5FE715FFA47
:101210008EF2BCF1000F03D003F0E2FA002010BD03
:1012200003F0EAF9002010BDB0B50446406801F0B3
:101230000F05854284BF0120B0BD08060AD4C1EB6A
:10124000C10004EB800000F5FE71002280F8FD2152
:1012500009E000BFC5EBC50004EB8000012200F1EE
:101260003C0180F83D2094F8BC03012201288A70DB
:101270000D7004BF0220B0BD206884F8BC2303F0C9
:101280008FFA1DB1002084F8BC03B0BD2068217C1A
:1012900004F5717203F02EFA002084F8BC03B0BD8F
:1012A000B0B501F00F0CCCEBCC0100EB8105294669
:1012B00001F83CCF0024D0F810E08C6101244C7080
:1012C000CA60BEF1010F4B6108BFEA6400685FFAB3
:1012D0008EF2BCF1000F03D003F082FA0020B0BD03
:1012E00003F08AF90020B0BD2DE9F04F89B00768FE
:1012F0008346384603F0BCFB10B109B0BDE8F08F5F
:10130000DBF8000003F0E2FB0028F6D0DBF8000079
:1013100003F0DCFB0146DBF80000890703D54169D7
:1013200001F00201416103F0D1FB0146DBF800004E
:10133000C90604973BD5816921F0100181613D6A9E
:10134000C5F34340062805F00F0419D0022828D120
:1013500047F6F07015EA000623D0C4EBC4000BEB8F
:101360008007D7F80812350904982A4603F0B2FB23
:10137000D7F8080200EB1610C7F80802049F07E030
:101380000BF571713846082203F0A4FBC5F30A156A
:10139000C4EBC4000BEB8000D0F814122944C0F851
:1013A0001412DBF80000816941F01001816103F043
:1013B0008DFB000340F1DA80DBF8000003F064FBF2
:1013C000002800F0D38006460BF571700BF5017410
:1013D0004FF000084FF4306A08901EE05FEAC960E1
:1013E00042BF07EB0A00102181605FEA896042BFBB
:1013F00007EB0A00202181605FEA894042BF07EBCA
:101400000A004FF40051816008F1010876080AF1E2
:10141000200A04F11C0400F0A980F007F4D0DBF8E6
:1014200000005FFA88F5294603F048FB8146C007B3
:101430006FD007EB0A0001218160DBF800000AEBA6
:10144000000C036CDCF80820DBF81070012F25D1AC
:10145000170737D4970655D4049F12F0280F58D198
:1014600043F20B01C4F654718B4202D312F40042D2
:1014700032D1DCF81010D4E900236FF3DF41511AA8
:1014800021619918B8F1000F616016D1DBF81012D4
:1014900099B9089A012103F02DF90EE043F20B07E8
:1014A000C4F65477FF37BB421CD110042CD4049FE0
:1014B000900644BF2020CCF8080058462946FFF784
:1014C000F1FD26E043F20B00C4F65470049F834202
:1014D0001FD312F400401CD04FF40040CCF8080099
:1014E00017E000BFB8F1000F06D1DBF8101219B9F0
:1014F000089A002103F0FEF858462946FFF7D2FD6E
:1015000006E000BF202001E04FF40040CCF80800C6
:10151000049F5FEA09707FF561AF07EB0A000821BD
:101520008160DBF8000043F20B02056C5044C4F606
:1015300054728168571EBD4205D911F400411CBF89
:101540004FF400418160584600F0DCFBBD42049F2F
:101550007FF644AFDBF8100001287FF43FAFDBF8E3
:101560000000089A012103F0C5F837E7DBF8000016
:1015700003F0ACFA400340F1CB80DBF8000003F04D
:101580007BFA002800F0C480064607F5106A0BF5C8
:10159000717000240290CDF818B0CDF80CA010E0C6
:1015A000079B04F00F00D3F83418012202FA00F070
:1015B00021EA0000C3F83408760804F1010400F0C1
:1015C000A780F007F8D0DBF80000E1B2089103F043
:1015D00063FA0546C00727D004F00F00D7F8341887
:1015E000012202FA00F021EA0000C7F834080AEBF1
:1015F00044108260DBF81000012811D1C4EBC40054
:101600000BEB8000D0E911121144816444B9DBF87E
:10161000500028B9DBF80000029A012103F06AF8B3
:1016200008995846FFF734FD280742BF0AEB4410DB
:1016300008218160E80642BF0AEB44101021816056
:10164000680642BF0AEB441040218160A80742BFF0
:101650000AEB4410022181602806ADD5C4EBC4001A
:101660000BEB8005A94659F8502FC84658F8040FCF
:101670008242A1D3DBF8007055F8443F111A994219
:1016800088BF1946079707EB441CDCF8187903312B
:10169000BFB2B7EB910F28BF824205D8049F8242A8
:1016A0003FF68AAF7CE700BF05F1040BDBF80010C2
:1016B0000CF5106A059500BF151A06989D42077C27
:1016C00088BF1D46DDE90702ABB2009703F02CFB93
:1016D000DBF80000EB1C4119D8F80000CBF8001033
:1016E0002844C8F80000DAF8182097B2D9F800208A
:1016F000B7EB930F28BF824202D9059B1B68DBE73B
:10170000DDF818B0DDE903A782423FF655AF47E7A1
:10171000DBF8000003F0DAF9002825D4DBF800003C
:1017200003F0D4F900053ED4DBF8000003F0CEF955
:10173000C00449D5D7F80408102120F00100C7F8EB
:101740000408DBF8000007F5006403F051F9DBF84A
:101750000410002900F00C81481E032801F0030C3E
:1017600036D20021B1E000BFD7F8040820F0010014
:10177000C7F804089BF8F403012807D100208BF870
:10178000F40358460021FFF703FC02E0584600F03E
:101790009DFADBF80000416901F00041416103F06E
:1017A00095F90005C0D5D7F80808C00702D05846FB
:1017B00000F0D0FADBF80000416901F400614161FA
:1017C00003F084F9C004B5D4DBF80000FDE000BFED
:1017D00021F0030200214FF67F3300BF049F043A3B
:1017E0000F44C7F80839D7F8006901F1800126F4E1
:1017F0000016C7F80069D7F8006946F00066C7F818
:101800000069C7F8083BD7F8006B26F40016C7F844
:10181000006BD7F8006B46F00066C7F8006BC7F89E
:101820002839D7F8206926F40016C7F82069D7F8B8
:10183000206946F00066C7F82069C7F8283BD7F84A
:10184000206B26F40016C7F8206BD7F8206B46F003
:101850000066C7F8206BC7F84839D7F8406926F406
:101860000016C7F84069D7F8406946F00066C7F827
:101870004069C7F8483BD7F8406B26F40016C7F814
:10188000406BD7F8406B46F00066C7F8406BC7F86E
:101890006839D7F8606926F40016C7F86069D7F888
:1018A000606946F00066C7F86069C7F8683BD7F81A
:1018B000606B26F40016C7F8606BD7F8606B46F0D3
:1018C0000066C7F8606B049F88D1BCF1000F4FD051
:1018D00007F5106253184FF67F3098605358BCF1EB
:1018E000010F23F400135350565807F5306346F0A8
:1018F0000066565003EB0106B0605E5826F40016F1
:101900005E505E5846F000665E5031D001F1200610
:101910009519A8609559BCF1020F25F40015955151
:10192000955945F00065955103EB0605A8609F5950
:1019300027F400179F519F5947F000679F5117D018
:1019400001F1400011184FF67F378F60115821F4D4
:1019500000111150115841F00061115019188F6099
:10196000195821F400111950195841F0006119500B
:10197000E06940F00110E061DBF8300040B1D4F8DC
:10198000840040F00B00C4F8840004F1440006E039
:10199000606942F22B010843606104F110000168A4
:1019A0000BF5717241F00B010160206820F4FE60BC
:1019B0002060DBF800009BF8101002F09BFEDBF8C3
:1019C0000000416901F48051416103F07FF8014654
:1019D000DBF8000089041AD502F0C8FADBF8000031
:1019E00003F038F8DBF80050CBF80C0000F07CFA7C
:1019F0009BF80C200146284603F006F9584600F0F3
:101A000053F9DBF80000416901F40051416103F032
:101A10005DF8000730D4DBF8000003F057F8C0028F
:101A200037D55846002100F057F8DBF8000041692F
:101A300001F48011416103F049F880022FD5584626
:101A4000002100F04DF8DBF80000416901F40011BD
:101A5000416103F03BF8400027D55846FFF714FBDF
:101A6000DBF80000416901F08041416103F02EF88C
:101A7000400721D4FFF741BC584600F02BF9DBF8B2
:101A80000000416901F00801416103F01FF8C00244
:101A9000C7D4DBF8000003F019F88002CFD4DBF8DC
:101AA000000003F013F84000D7D4DBF8000003F087
:101AB0000DF840077FF521ACDBF8000044686107B2
:101AC00004D55846FFF7FAFADBF8000041682143D5
:101AD000416009B0BDE8F08FD0F8040401F016BEF3
:101AE000D0F8040401F022BE2DE9F04F8BB000289D
:101AF00000F086800446056890F8BD0328B90020F0
:101B000084F8BC03204600F08FF8032084F8BD035E
:101B1000E86BC0055CBF00202061206802F064FD16
:101B2000206804F11C0A0A90D4E90C5004F1040E58
:101B30009AE8C0079EE80E58CDE9085003A880E84F
:101B4000C0030A988DE80058CDF81CA002F01EFAD8
:101B5000002852D120680021002503F011F86168A7
:101B600061B3012000230022C3EBC30304EB83070E
:101B700087F83C20D3B20132A7F84230D3B2994261
:101B800087F83D0087F83F50C7E911553D65EBD810
:101B900000200023002200BFC3EBC30304EB830734
:101BA00087F8FC210132D3B2994287F8FD0187F80A
:101BB000FF01C7E98100C7F81002EDD8A0682268CC
:101BC0000A90D4E90C5004F1140E04F1240AD4E96B
:101BD00003379EE840589AE80007CDE9085002A86C
:101BE00080E8005810460A9ACDE90076CDE90589CB
:101BF000CDF81CA002F00CFB40B1022084F8BD031C
:101C0000012528460BB0BDE8F08F00BF002501205C
:101C100084F8385084F8BD03206802F0E9FA2846B9
:101C20000BB0BDE8F08F0000B0B586B00068B0F131
:101C3000A04F01D006B0B0BD002543F63004019599
:101C4000C4F20204206801A940F00100206020686D
:101C500000F00100019001984FF4C0500190022063
:101C6000CDE90205032004900A2005900020C4F26B
:101C70000200FEF7EBFD6068002140F0800060602C
:101C800000956069002240F480406061606900F462
:101C90008040009000984320FFF73EF94320FFF773
:101CA0002BF906B0B0BD000010B50446C06802288C
:101CB00018BFFEF7B1FDD4F80404012101F0BAFD0C
:101CC000D4F80404BDE8104001F066BDD0F8040467
:101CD00001F096BDD0F8040401F09CBD10B5044697
:101CE00090F8BC03012804BF022010BD012084F835
:101CF000BC0384F83810206802F074FF002084F8D8
:101D0000BC0310BDD0F8042400F57171104601F039
:101D1000A7BD000010B5044690F8BC03012804BF1D
:101D2000022010BDA16A20680122012984F8BC2389
:101D300006D1A169012903D0816B41F4803181630F
:101D400002F04EFE206802F043FA002084F8BC0343
:101D500010BD000010B50446D0F8040401F0D6FD13
:101D60002068D0F8001E41F00101C0F8001E206A72
:101D7000002808BF10BD4EF61050CEF200000168DA
:101D800041F00601016010BD2DE9F041002800F08E
:101D90008B8043F60808C4F202080446D8F8F8031A
:101DA0000D4600F00700884207D288F8F853D8F8AB
:101DB000F80300F00700A84276D12068810717D504
:101DC000410705D5D8F8001041F4E051C8F80010DB
:101DD000010705D5D8F8001041F46041C8F800109B
:101DE000D8F80010A26821F0F0011143C8F80010E3
:101DF000C0073FD1D8F8F80300F00700A84207D980
:101E000088F8F853D8F8F80300F00700A8424BD13F
:101E10002068410707D5D8F80010E26821F4E051A6
:101E20001143C8F80010000708D5D8F80000216950
:101E300020F4604040EAC100C8F8000000F06EF8ED
:101E4000D8F8001045F63542C1F30311C0F6000280
:101E5000515C40F27C0220FA01F140F20800C2F22B
:101E600000000068C2F200021160FEF7F1FF0020DE
:101E7000BDE8F0816068811E022907D258F8081C6D
:101E800089015CBF0120BDE8F08111E0012807D184
:101E900058F8081C89035CBF0120BDE8F08107E009
:101EA00058F8081C890703D40120BDE8F08100BF61
:101EB000D8F8001021F003010843C8F80000FEF72D
:101EC000B7FD064641F28837D8F80000616800F097
:101ED0000C00B0EB810F8DD0FEF7AAFD801BB8423D
:101EE000F2D90320BDE8F08140F27C00C2F200008C
:101EF0000068704740F27C0043F60801C2F200001F
:101F0000C4F202010068096845F64542C1F3822126
:101F1000C0F60002515CC8407047000010B543F69F
:101F20000404C4F20204606800F00C0008280BD01E
:101F3000042819BF42F20040C0F2F40047F6400006
:101F4000C0F27D1010BD00BF2068216823684902DF
:101F500047F64001C0F27D1100F03F02C3F3881044
:101F60005CBF42F20041C0F2F401A1FB000100237A
:101F7000FEF7A4F921680222C1F3014102EB4101FD
:101F8000B0FBF1F010BD00002DE9F04182B0002857
:101F90006AD00446007843F60006C007C4F2020681
:101FA0000BD0B06800F00C00042840F0A18030682D
:101FB000800302D56068002856D0207880071AD5A3
:101FC000B06810F00C0F09D0B06800F00C000828C1
:101FD00040F0A8807068400200F1A480306880075B
:101FE00002D5E06801283FD13068216920F0F8006F
:101FF00040EAC10030602078000739D420784007DB
:102000004ED4A5695DB3B06800F00C00082840F01C
:10201000BD80012D28D07068E16900F480028A42F9
:1020200022D1216A00F03F028A421DD147F6C071D9
:10203000626A0140B1EB821F16D1A26A0023CFF67B
:10204000FF7303EBC23200F440316FF30F02914291
:102050000AD1E16A00F07060B0EB016F04D100209A
:1020600002B0BDE8F08100BF012002B0BDE8F08100
:102070006069002840F20000C4F2472076D00121B8
:10208000C0F8801EFEF7D4FC054600BF706F8007C5
:10209000B4D4FEF7CDFC401B0228F7D9DDE000BF29
:1020A000306C10F080580AD100200190306C40F064
:1020B00080503064306C00F080500190019847F2FD
:1020C0000007C4F200073868C00541D4386840F4FE
:1020D00080703860FEF7ACFC054600BF3868C0056C
:1020E00036D4FEF7A5FC401B0228F7D9B5E000BFA7
:1020F000B06800F00C00082803D1706840023FF57A
:1021000056AF6068B0F5803F07D0B0F5A02F40F023
:102110008D80306840F480203060306840F480303A
:1021200030608DE0E068002852D00020C4F24720E3
:1021300001210160FEF77CFC054600BF3068800786
:102140003FF552AFFEF774FC401B0228F6D984E03D
:10215000A068012805D005284ED1306F40F004005A
:102160003067306F40F0010030674FE00021C0F869
:10217000801EFEF75DFC0546706F80077FF53EAF61
:10218000FEF756FC401B0228F6D966E00027C4F291
:10219000472700203866FEF74BFC022D05460BD181
:1021A000306880015ED5FEF743FC401B02284FF0EB
:1021B0000300F5D954E700BF306880017FF54FAFC9
:1021C000FEF736FC401B02284FF00300F4D947E726
:1021D0000020C4F2472000210160FEF729FC0546DB
:1021E000306880077FF507AFFEF722FC401B02280E
:1021F0004FF00300F4D933E7316F002821F00101DB
:102200003167316F21F0040131674DD0FEF710FCCA
:10221000054641F2883700BF306F800756D4FEF77D
:1022200007FC401BB842F7D917E000BF316800280F
:1022300021F480313160316821F4802131604FD048
:10224000FEF7F6FB054600BF306880033FF5B5AEEC
:10225000FEF7EEFB401B6428F6D9032002B0BDE870
:10226000F08100BF04F11C052FCD08430021CFF6FB
:10227000FF7140EA821001EBC3316FF30F0140EAB6
:1022800005600843706001203866FEF7D1FB044604
:10229000306880013FF5E3AEFEF7CAFB001B022861
:1022A0004FF00300F4D9DBE6FEF7C2FB054641F22E
:1022B000883700BF306F800708D5FEF7B9FB401B99
:1022C000B8424FF00300F5D9CAE600BFB8F1000FDD
:1022D0007FF497AE306C20F08050306491E600BF00
:1022E000FEF7A6FB054600BF306880037FF565AEAC
:1022F000FEF79EFB401B64284FF00300F4D9AFE6C5
:10230000411E0020B0EB116F1CBF012070474EF240
:102310001002CEF2000251604EF62351CEF20001BF
:10232000F0230B7007219060116070477047000028
:102330007047000010B590F83C20012A4FF00202CF
:102340003ED080F83D200268D2F804E0D2F808C000
:102350000C682EF07003234340F6FF34C4F20004EF
:10236000A242536010DCB2F1804F1ED040F2004315
:10237000C4F200039A4218D040F60003C4F20003EE
:102380009A4212D016E000BF40F60043C4F20003A8
:102390009A420AD044F20003C4F201039A4204D0E4
:1023A0000023C4F201039A4204D149682CF080034F
:1023B000194391600121002280F83D1080F83C20F3
:1023C000104610BD10B50446022084F83D00206878
:1023D00041F21112016A114208D1016A40F24442ED
:1023E000114203D1016821F001010160204600F093
:1023F000B7F80021002084F8461084F83E1084F8D5
:102400003F1084F8401084F8411084F8421084F89A
:10241000431084F8441084F8451084F83D1084F883
:102420003C1010BD002804BF0120704710B50446C1
:1024300090F83D0028B9002084F83C00204600F0C8
:10244000A3F8022084F83D00206840F2FF73026880
:10245000C4F2000340F2000C9842C4F2010C1DDDEE
:1024600040F60001C4F20001884220D060451ED031
:1024700040F60041C4F20001884218D04FF6FF71C7
:10248000C4F2000188421CDC984225DCB0F1804F88
:102490003AD040F20041C4F2000133E0B0F1804F85
:1024A00005D040F20041C4F200018842E6D1A168A3
:1024B00022F070020A434FF6FF71C4F20001884215
:1024C000E2DD44F2FF31C4F20101884210DC6045D4
:1024D0001AD044F2000113E040F60001C4F20001FA
:1024E000884211D040F60041C4F200010AE000BF6A
:1024F00044F60001C4F20101884205D044F20041D3
:10250000C4F20101884203D1216922F440720A43D6
:10251000A36922F08001D4F804E0E2681943604521
:102520000160C262C0F828E002D16169CCF83010C5
:1025300001214161002084F8461084F83E1084F89F
:102540003F1084F8401084F8411084F8421084F859
:10255000431084F8441084F8451084F83D1010BDF1
:10256000006840F60041C4F20001884218BF70477D
:1025700043F64001C4F20201086820F0080232204C
:102580000A60FEF7A5BC000080B582B0006840F686
:102590000041C4F2000188421CBF02B080BD00208F
:1025A000019043F64000C4F202000168002241F0AD
:1025B000080101600068002100F008000190019806
:1025C0003220FEF7A9FC322002B0BDE88040FEF7C1
:1025D00093BC000090F83D1001291CBF01207047FA
:1025E000022180F83D10006840F6FF32C168C4F255
:1025F0000002904241F00101C1600FDCB0F1804F58
:102600001DD040F20041C4F20001884217D040F6CC
:102610000001C4F20001884211D017E040F60041E9
:10262000C4F2000188420AD044F20001C4F2010160
:10263000884204D00021C4F20101884206D1816899
:1026400001F00701062904BF00207047016841F02E
:10265000010101600020704780B590F83C20012AFC
:102660004FF0020200F0C28080F83D20D0F800C098
:102670004FF67772DCF8083023EA0202CCF8082023
:102680000B684F2B28DC1F2B44DD202B45D0302B33
:1026900043D0402B40F0AC80D1F804E0C968DCF8AE
:1026A0002030DCF8202022F00102CCF82020DCF8D9
:1026B000182022F0F00242EA011123F00A0242EA55
:1026C0000E02CCF81810CCF82020DCF8081041F0ED
:1026D000470121F0300180E06F2B27DDB3F5005F6B
:1026E00048D0B3F5805F7AD0702B40F08180D1E97B
:1026F00001E3C968DCF8082043EA0E0322F47F42B4
:1027000043EA01211143CCF80810DCF8081041F02D
:10271000770162E00BB1102B6AD1DCF8081021F0D0
:102720007001194341F0070157E000BF502B35D02D
:10273000602B5DD1D1F804E0C968DCF8203023F0CB
:102740001003CCF82030DCF81830DCF8202023F41B
:10275000704322F0A00243EA013142EA0E12CCF8A3
:102760001810CCF82020DCF8081041F0670121F0A7
:10277000100132E0D1E901E3C968DCF8082043EA3E
:102780000E0322F47F4243EA01211143CCF80810E2
:10279000DCF8081041F480411FE000BFD1F804E0EC
:1027A000C968DCF82030DCF8202022F00102CCF8E7
:1027B0002020DCF8182022F0F00242EA011123F078
:1027C0000A0242EA0E02CCF81810CCF82020DCF8FD
:1027D000081041F0570121F02001CCF80810002228
:1027E000012180F83D10002180F83C10104680BD8A
:1027F0000122F5E77047000010B50168044608693A
:10280000800744BFC8685FEA807039D40869400710
:1028100044BFC8685FEA40703ED40869000744BFFF
:10282000C8685FEA007045D40869C00644BFC8683C
:102830005FEAC0604AD40869C0071CBFC8685FEA85
:10284000C07051D10869000644BFC8685FEA0060E3
:1028500052D40869400644BFC8685FEA406053D458
:102860000869800646BFC8685FEA806010BD6FF0E7
:10287000200220460A61BDE81040FFF759BD00BFA5
:102880006FF002000861012020778869800743D03B
:102890002046FFF7AFFF45E06FF00400086102201B
:1028A0002077886910F4407F40D02046FFF7A2FFD0
:1028B00042E000BF6FF00800086104202077C8697B
:1028C00080073DD02046FFF795FF3FE06FF01000F6
:1028D000086108202077C86910F4407F3AD020466C
:1028E000FFF788FF3CE000BF6FF001000861204661
:1028F00000F03EF82168A5E76FF0800008612046EF
:10290000FFF714FD2168A4E76FF04000086120463E
:1029100000F030F82168A3E7204600F025F82046B3
:1029200000F024F82168002020776FE7204600F0AF
:102930001BF8204600F01AF82168002020776CE789
:10294000204600F011F8204600F010F82168002021
:10295000207769E7204600F007F8204600F006F8E7
:1029600021680020207766E770470000704700006C
:102970007047000070470000FEE700002DE9F043BB
:1029800081B00446006890460268099D42F4807256
:1029900002604269089E9946D2070F461DD1711CFC
:1029A00011D0002E00F0D280FEF742F8401BB0425A
:1029B00000F2CE8020684169C907F5D00DE000BF64
:1029C0004169C90709D14169C90706D14169C907E8
:1029D00004BF41695FEAC171F2D007F0FE010161F5
:1029E0004169890738D44169721C01F4806111D0B2
:1029F00049BB002E00F0E880FEF71AF8401BB042F9
:102A000000F2E48020684169890725D441694905BD
:102A1000F2D518E0B9B9416989071DD44169490562
:102A200011D44169890717D4416949050BD441691B
:102A3000890711D44169490505D4416989070BD437
:102A400041694905E7D5016841F4007101606FF4FF
:102A5000806141610420BAE000210091014651F8F3
:102A6000142F00924A680092009A0A6812061ED437
:102A7000002E00F08580721C4DD10A68520500F1CD
:102A800087800A68120612D40A68520500F1808015
:102A90000A6812060BD40A68520579D40A6812062D
:102AA00005D40A68520573D40A681206E5D5B9F14F
:102AB000010F43D04FEA18210161014651F8142F4C
:102AC00012063BD4002E5BD0721C29D10A68520535
:102AD0005ED40A68120631D40A68520558D40A68CE
:102AE00012062BD40A68520552D40A68120625D45D
:102AF0000A6852054CD40A681206E7D51EE000BFEA
:102B0000FDF796FF401BB0423FD82068014651F8C0
:102B1000142F1206CBD408684005F1D538E000BF69
:102B20000868400534D4FDF783FF401BB0422CD821
:102B30002068014651F8142F1206F1D55FFA88F18A
:102B40000161002001B0BDE8F08300BFFDF770FF18
:102B500000202021206384F83D1084F83E00216C81
:102B600041F020012164216884F83C000868C00518
:102B700044BF4FF400702064032001B0BDE8F0832F
:102B80000868400504D4FDF753FF202004E000BF8F
:102B90006FF480600860042000212022216384F803
:102BA0003D2084F83E10226C1043206484F83C10D1
:102BB000206C042817D12068016841F4007101607D
:102BC000012001B0BDE8F083FDF732FF2020002195
:102BD0002022216384F83D2084F83E10226C1043AB
:102BE000206484F83C10012001B0BDE8F0830000AF
:102BF00070B50368044653F8140F400737D40E46E7
:102C0000F1B1701C24D100BF1868400532D4186897
:102C100040072CD4186840052CD41868400726D4E7
:102C20001868400526D41868400720D41868400565
:102C300020D4186840074FF0000048BF70BDE3E79C
:102C40001868400516D4FDF7F3FE202016E000BFFB
:102C5000154600BF186840050CD4FDF7E9FE401B7F
:102C6000B042F2D8236853F8140F4007F2D5002081
:102C700070BD00BF6FF48060186004200021202226
:102C8000216384F83D2084F83E10226C10432064B8
:102C9000012084F83C1070BDF0B587B0002643F6E3
:102CA000300006960196C4F20200016840F6000466
:102CB00041F0040101600168C4F2020401F0040162
:102CC0000191019901960168012241F080010160A2
:102CD00001684FF4005501F08001019101990196BE
:102CE0000168012741F001010160016801F0010163
:102CF000019101990196016841F0020101600068AB
:102D00004FF4005100F00200019001982046FDF7B9
:102D100089FE0295112002ADCDE903062046294621
:102D20000596FDF793FDA4F500602946CDE90276EE
:102D30000497FDF78BFD07B0F0BD000080B540F6AD
:102D4000303045F20041C2F20000C4F2000148F206
:102D5000A06200234FF4804CC0F2010280E80E0014
:102D6000C0E9033CC0E90533C0E90733FDF766FE5F
:102D7000002808BF80BDBDE88040FDF74DBD0000C4
:102D800080B586B040F68C7040F6004244F2402C8C
:102D90000021C2F20000C4F200025323C0F20F0C63
:102DA0000591CDE90311CDE90011C0E90023C0E987
:102DB000021C01618161FFF735FB002818BFFDF798
:102DC0002BFD4FF48050029040F68C70C2F2000050
:102DD00002A9FFF741FC002818BFFDF71DFD40F6D2
:102DE0008C70C2F200006946FFF7A4FA002818BFF1
:102DF000FDF712FD06B080BD80B540F6600040F2E0
:102E00005801C2F20000C2F20001002200F062FB91
:102E1000002818BFFDF700FD40F6600040F2940165
:102E2000C2F20000C2F2000100F098FD002818BFB5
:102E3000FDF7F2FC40F66000C2F2000000F0AEFDCB
:102E4000002808BF80BDBDE88040FDF7E5BC00005C
:102E5000FEE70000FEE7000040F68430C2F200000A
:102E6000FEF742BA7047000070470000FDF7C6BF8A
:102E7000B0B592B0002443F64000CDE90A44CDE954
:102E800008440594CDE90344CDE901440094C4F21B
:102E900002000168022541F080510160006800F0E5
:102EA00080500090009847F200000094C4F20000A7
:102EB000016865F38F310160006800F440400090C4
:102EC0000098012006904FF4803007904FF4800066
:102ED0000D9019200E904FF4A8700F9004201090C0
:102EE0000720119006A80C95FFF74EF820B1EFF3DC
:102EF000108072B6FEE700BF0F20CDE901054FF448
:102F00008050CDE9040401A802210394FEF73CFFA0
:102F100020B1EFF3108072B6FEE700BF12B0B0BD73
:102F20004EF68850CEF20000016841F47001016055
:102F30007047000080B502F085FD40F68C70C2F24B
:102F40000000BDE88040FFF757BC000080B5D0F816
:102F5000B8220AB152689047002080BD80B5134660
:102F60000A46002100F006FC002080BD80B5134613
:102F70000A46002100F0D4FC002080BD10B580215D
:102F8000044600F09FFC20460021BDE8104000F000
:102F900099BC000080B50521C0F8941200210022E0
:102FA000002300F0E7FB002080BD000080B5134641
:102FB0000A460221C0F894120021C0E9063300F04D
:102FC000AFFC002080BD000080B50421C0F8941241
:102FD00000210022002300F0A3FC002080BD00009F
:102FE00010B540F24C64C2F200040A4602A0214629
:102FF00000F00CF9204610BD48494420436F6E662E
:103000006967000040F280001222C2F200000A80CC
:103010007047000010B540F24C64C2F200040A464A
:1030200002A0214600F0F2F8204610BD4849442095
:10303000496E7465726661636500000040F2441079
:103040000422C2F200000A807047000010B540F26E
:103050004C64C2F200040A4602A0214600F0D6F8F1
:10306000204610BD53544D6963726F656C6563747F
:10307000726F6E696373000010B540F24C64C2F267
:1030800000040A4602A0214600F0C0F8204610BD08
:10309000506F6D6F646F726F2074696D65720000A0
:1030A000B0B547F61020C1F6FF70026883684FF094
:1030B0001A0C9B18A1F800C000F0A3804FF0370C49
:1030C0001A0F0CEB13714068B3F1204F38BF02F1B7
:1030D000300140F24812C2F20002917019014FF023
:1030E000000E0CEB117582F803E0C3F30364B1F139
:1030F000204F38BF04F13005190215710CEB117522
:1031000082F805E0C3F30354B1F1204F38BF04F156
:103110003005190395710CEB117582F807E0C3F3C4
:103120000344B1F1204F38BF04F130051904157282
:103130000CEB117582F809E0C3F30334B1F1204FB1
:1031400038BF04F13005190595720CEB117582F842
:103150000BE0C3F30324B1F1204F38BF04F1300575
:1031600019061573C3F303140CEB1175B1F1204F5D
:103170004FEA037103F00F0382F80DE038BF04F14A
:10318000300503F13704957382F80FE0B1F1204F59
:1031900038BF03F13004010F0CEB1073147482F884
:1031A00011E0B0F1204F38BF01F1300301010CEB09
:1031B0001174937482F813E0C0F30363B1F1204FEC
:1031C00038BF03F1300401021475C0F303530CEB54
:1031D0001174B1F1204F4FEA003182F815E038BF89
:1031E00003F130040CEB1173947582F817E0C0F30F
:1031F0000340B1F1204F38BF00F13003137682F85D
:1032000019E040F24810C2F20000B0BD10B500282D
:1032100068D00378B3B100F1020E4FF0000C00BF8C
:103220001EF8013C93B19EF800309BB19EF801302E
:10323000A3B19EF802300CF1040C002B0EF1040E29
:10324000EED10DE04FF0000C0AE000BF4CF0010C95
:1032500006E000BF4CF0020C02E000BF4CF0030C93
:103260005FFA8CFC022303EB4C03138003220B70E8
:103270004A7090F800E0BEF1000F33D0841C0222A7
:103280004FF0000C1AE000BF101DC0B20B5440F00C
:10329000010001F800C06378002B08BF10BD901D2D
:1032A000C0B20B5440F0010001F800C094F802E0F5
:1032B0000832BEF1000F04F1040413D0D3B201F8B8
:1032C00003E043F0010301F803C014F8013C4BB1E3
:1032D000901CC0B20B5440F0010001F800C02378EC
:1032E000002BD1D110BD0000D0F8BC12002200206C
:1032F0000A737047B0B58121044600F013F9D4F881
:10330000BC020025A56318B100F0E2FDC4F8BC5270
:103310000020B0BD014640F214100A22C2F20000A3
:103320000A807047014640F2CC002222C2F200001F
:103330000A807047014640F2F0002222C2F20000EB
:103340000A807047014640F220102222C2F200009B
:103350000A807047B0B50446102000F0BBFD98B15C
:103360000546C4F8BC02207C0A21002808BF0721BA
:103370006187204681210322042300F0E7F9012020
:10338000208700202873B0BD0020C4F8BC020220B2
:10339000B0BD000080B5D0F8BC324BB194460A46AF
:1033A00090F89C12032901D1197B19B1002080BD2E
:1033B000032080BD012119738121634600F0B0FA1A
:1033C000002080BD80B582B0D0F8BC320022ADF8BC
:1033D0000620DBB10A7812F060021BD0202A40F0F0
:1033E00069804A78A2F1020CBCF1090F00F26280F8
:1033F000DFE80CF0062A6060606060602C3200BF7D
:10340000191D0122FFF7D2FD002219E00322104608
:1034100002B080BD91F801C0BCF10B0F4AD8002268
:10342000DFE80CF0060E4848484820484848303E3F
:1034300090F89C22032A3DD10DF10601022228E0DA
:10344000104602B080BD00BF194621E0C8780022B6
:103450005860104602B080BD88780022186010467F
:1034600002B080BDCA78212A2AD0222A22D1CA8855
:1034700040F20C01C2F200013F2A28BF3F220C316A
:1034800007E000BF90F89C22032A13D103F1080142
:103490000122FFF78BFD0022104602B080BD00BF65
:1034A00090F89C22032A05D1887800229860104663
:1034B00002B080BDFFF762FD0322104602B080BD5E
:1034C000CA8840F20C01C2F20001092A28BF092271
:1034D000DFE70000002804BF032070470023C0F886
:1034E000B832C0F8C0320029C0F8CC3218BFC0F8DA
:1034F000B412012180F89C12027000F0BFB80000E5
:1035000080B5D0F8C402FDF703FE40F20032C100DE
:10351000C0F2013222FA01F1032888BF0321C8B2A8
:1035200080BD000080B5D0F8C402FDF7CBFD40F2AD
:103530000032C100C0F2013222FA01F1032888BF33
:103540000321C8B280BD0000B0B5044671B194F843
:103550009C0203284AD1D4F8B8024269002A45D017
:1035600020469047002808BF0020B0BDD4F8940240
:10357000022834D1D4E9070188420DD9431A2046E4
:1035800011461A46E361FFF7F1FC204600210022B4
:10359000002300F0EFF822E010D1A16981420DD3A1
:1035A000D4F89802814209D2204600210022002549
:1035B000FFF7DCFCC4F89852E7E700BF94F89C02E0
:1035C000032805D1D4F8B802C16809B1204688475C
:1035D0002046802100F076F92046FFF7DBFC94F8C6
:1035E000A002012804BF002084F8A0020020B0BD82
:1035F00010B5044671B194F89C0203281DD1D4F88B
:10360000B8028269CAB120469047002808BF00204E
:1036100010BD00BFD4F8940203280ED1D4E957039B
:1036200098420DD9C01AC4F85C01984238BF0346CD
:10363000204611461A46FFF791FC002010BD00BF3E
:1036400094F89C02032805D1D4F8B802016909B1A5
:10365000204688472046FFF7B7FC002010BD000039
:103660000020704780B5012180F89C12D0F8B81274
:1036700011B14A6801799047002080BD10B50178EA
:1036800011B1002010BD00BF40F68431C2F200012C
:10369000C1F80404C0F8C4124FF0A0400422C1E9EC
:1036A000000202200022C1E90302C1E90602084625
:1036B000C1E90822C1E90B22FEF716FA002818BF5B
:1036C000FDF7AAF840F68434C2F2000420468021B7
:1036D000FDF760FC204600214022FDF75FFC2046FC
:1036E00001218022FDF75AFC002010BDD0F8C40251
:1036F00001F07F02C2EBC20200EB820000F13E0249
:10370000090658BF00F5FF721078704780B5D0F8F1
:10371000B8224AB190F89C32032B02D1126A02B14E
:103720009047002080BD00BF032080BD80B5D0F849
:10373000B8224AB190F89C32032B02D1526A02B1EE
:103740009047002080BD00BF032080BD80B5944617
:10375000D0F8C4021A466346FDF70CFD40F2003271
:10376000C100C0F2013222FA01F1032888BF03210F
:10377000C8B280BD80B5D0F8C402FDF72BFD40F281
:103780000032C100C0F2013222FA01F1032888BFE1
:103790000321C8B280BD0000F0B581B0044601200D
:1037A000002184F89C02C4F89412D4F8B802616035
:1037B000C4F8A41200B3D4F8BC1221B1426812B10B
:1037C000204600219047204600210022402300256A
:1037D0004026FFF7BBFF012720468021002240231F
:1037E000A4F86471C4F86061FFF7B0FFA784266293
:1037F000284601B0F0BD00BF0325284601B0F0BD4A
:1038000090F89C12042904BF90F89D1280F89C1235
:103810000020704780B5D0F8B81249B190F89C22CA
:10382000032A02D1C96901B18847002080BD00BFC9
:10383000032080BD024600201174704780B5D0F887
:10384000C402FEF74BFA40F20032C100C0F201326E
:1038500022FA01F1032888BF0321C8B280BD00000D
:10386000B0B500F2AA250446284600F06BF8012006
:10387000C4F8940294F8AA02B4F8B02200F01F0130
:103880000229C4F8982209D001290DD091B9204607
:103890002946BDE8B04000F083B800BF2046294665
:1038A000BDE8B04000F030BA20462946BDE8B0403F
:1038B00000F0D0BA00F080012046BDE8B04000F032
:1038C00001B8000080B5D0F8C402FDF7ADFC40F2AD
:1038D0000032C100C0F2013222FA01F1032888BF90
:1038E0000321C8B280BD000080B5D0F8C402FEF745
:1038F00011FA40F20032C100C0F2013222FA01F1A5
:10390000032888BF0321C8B280BD0000014690F89B
:103910009C02042281F89D02002081F89C227047BD
:1039200080B5D0F8C402FDF7BBFC40F20032C10004
:10393000C0F2013222FA01F1032888BF0321C8B284
:1039400080BD00000A7802704A7842704A8842803E
:103950008A888280C988C1807047000010B582B013
:1039600004460020ADF8060061B1CA6AC4F8B81276
:1039700022B10DF106009047C4F8CC02002002B03D
:1039800010BD00BF032002B010BD0000D0F8B82267
:10399000002A04BF0320704712681047FFF7A4BF36
:1039A000B0B582B00D460978044611F060010DD023
:1039B000402901D020292BD1D4F8B80229468268A9
:1039C000204602B0BDE8B040104700BF6878092823
:1039D00000F2CE80DFE800F00628CC3ACC4262CC80
:1039E0007A8E00BF94F89C020138022800F2C08051
:1039F000E888022840F0BC80D4F8A4020322002802
:103A000008BF0122214641F80C2F2046022261E125
:103A100020468021FFF756FF204600210025FFF7B2
:103A200051FF284602B0B0BD94F89C02013802282C
:103A300000F29E80688800250128F2D12046C4F853
:103A4000A452FFF7C1FA284602B0B0BD6888012829
:103A500066D10120C4F8A40242E100BFA888002872
:103A600040F08680E888002840F0828068887F28BF
:103A700000F27E8094F89C12032900F07980C5B290
:103A800084F89E0220462946FFF7D8FE2046FFF71D
:103A90009BFA002D0CBF01200220F1E068884FF056
:103AA000FF3101EB102100220629ADF8062000F2BB
:103AB0001F81DFE811F00700690077001D011D017B
:103AC00085009100D4F8B4020268F3E0E888012888
:103AD0004ED194F89C02411E022943D20025214672
:103AE00041F8085F20460122FFF760FA284602B03D
:103AF000B0BD00BF688840F24865C2F2000510F012
:103B0000FE0F287010D020468021FFF7DBFE2046F4
:103B10000021FFF7D7FE0325284602B0B0BD00BF45
:103B20000025284602B0B0BD94F89C22C1B2032AF9
:103B300060D0022A40F08080002900F0D180204629
:103B40006160FFF723FF002800F0968005462046BD
:103B50008021FFF7B7FE20460021FFF7B3FE28467D
:103B600002B0B0BD032803D1211D20460122B1E0DF
:103B700020468021FFF7A6FE204600210025FFF702
:103B8000A1FE284602B0B0BD217CD4F8B8020029BD
:103B90000CBF816AC16A0DF1060088470146022008
:103BA00026E000BFC0B2052800F2A280DFE800F0E6
:103BB000046E72767A7E00BFD4F8B402426878E070
:103BC000207C002840F09480D4F8B802416B0DF1BD
:103BD0000600884772E000BF207C002840F0888003
:103BE000D4F8B802016B0DF10600884701460720A2
:103BF000487064E081B36068884271D0C1B22046E9
:103C0000FFF7A4F9297820466160FFF7BFFE00287E
:103C100066D0054620468021FFF754FE204600214D
:103C2000FFF750FE21792046FFF790F9022084F833
:103C30009C02284602B0B0BD20468021FFF742FE1C
:103C400020460021FFF73EFE29782046FFF77EF947
:103C50000325284602B0B0BD022084F89C026160B2
:103C6000204600210025FFF771F92046FFF7ACF947
:103C7000284602B0B0BD00BF2046FFF7A5F90320DB
:103C800084F89C020025284602B0B0BDD4F8B402E6
:103C900082680EE0D4F8B402C2680AE0D4F8B40234
:103CA000026906E0D4F8B402426902E0D4F8B40232
:103CB0008269EAB1207C0DF1060190470146EA884D
:103CC00072B1BDF8060098B1904238BF0246204656
:103CD000ADF80620FFF76AF90025284602B0B0BD0E
:103CE0002046FFF771F90025284602B0B0BD00BF9D
:103CF00020468021FFF7E6FD20460021FFF7E2FD88
:103D00000025284602B0B0BDB0B50D46097804467E
:103D100011F060010CD0402901D0202922D1D4F823
:103D2000B802294682682046BDE8B040104700BF6F
:103D30006878297900B3012838D003286AD194F82B
:103D40009C02032836D1688838B911F07F0004D06E
:103D5000E88810B92046FFF7B5FD2046FFF734F993
:103D60000020B0BD20468021FFF7ACFD2046002199
:103D7000FFF7A8FD0020B0BD94F89C02032827D0CF
:103D8000022808BF5FEA416044D101F07F0000EBE8
:103D9000800004EB800000F11402090658BF00F512
:103DA000AA7200201060204611464DE094F89C0253
:103DB000032839D002282DD148062BD02046FFF702
:103DC00081FD20468021FFF77DFD0020B0BD00BFB2
:103DD00001F00F0202EB820211F0800004EB82027C
:103DE00014BF928CB2F86421A2B101F07F0202EB01
:103DF000820204EB820202F11405002808BF02F5DA
:103E0000AA7548061CD02046FFF770FCC0B10120FF
:103E100017E000BF20468021FFF754FD2046002117
:103E2000FFF750FD0020B0BD68880028A2D14806E9
:103E300002D02046FFF764FB2046FFF7C5F86EE787
:103E400000202860204629460222FFF7AFF8002014
:103E5000B0BD0000B0B50D460978044611F0600110
:103E600018BF402914D194F89C020138022803D8C5
:103E7000A88810F0FE0F17D020468021FFF722FD02
:103E8000204600210025FFF71DFD2846B0BD00BFDC
:103E90002029E8D020468021FFF714FD204600218C
:103EA0000025FFF70FFD0BE0D4F8B8022946826821
:103EB00020469047E9880546002908BF002D01D01B
:103EC0002846B0BD2046FFF77FF80020B0BD0000B7
:103ED0007047000040F64C00C2F20000704700003E
:103EE00080B54B780A78012B02F00F031CD14FF0FC
:103EF000010CD0F81CE80CFA03F343EA0E03C0F8F7
:103F00001C3800EB4210D0F800391B042BD48B680E
:103F100000F5106091F803C001686FF3DF2343EAF6
:103F20008C4341EA825118E04FF4803CD0F81CE801
:103F30000CFA03F343EA0E03C0F81C3800EB4210FE
:103F4000D0F8002B12040ED48A6800F53060C978CE
:103F50006FF3DF22036842EA8141194341F0805147
:103F600041F400410160002080BD00000146D0F80E
:103F7000000940F2FF729043C1F80009D1F804082B
:103F800040F480720020C1F80428704782B0049980
:103F9000DDF808C0012940F64051C0F2030167D1A5
:103FA000826B4FF6BF7322F480328263C268CFF611
:103FB000BD731A40C260C2680B9B22F44012012BF1
:103FC000C26003D1C26842F48012C2600022009233
:103FD000009A01328A42009200F29A800269002A15
:103FE0001BD4009A01328A42009200F29180026949
:103FF000002A12D4009A01328A42009200F288808C
:104000000269002A09D4009A01328A42009200F221
:104010007F800269B2F1FF3FDADC00220092026980
:1040200042F001020261009A01328A4200926FD886
:104030000269D20717D0009A01328A42009267D8EB
:104040000269D2070FD0009A01328A4200925FD8EB
:104050000269D20707D0009A01328A42009257D8EB
:104060000269D207DFD10021BCF1010F6AD161E002
:10407000C268089B42F04002C26000220192019A8D
:1040800001328A42019249D80269002A18D4019A61
:1040900001328A42019241D80269002A10D4019A61
:1040A00001328A42019239D80269002A08D4019A61
:1040B00001328A42019231D80269B2F1FF3FDEDC5F
:1040C00000220192026942F001020261019A01326A
:1040D0008A42019222D80269D20717D0019A01328E
:1040E0008A4201921AD80269D2070FD0019A01328E
:1040F0008A42019212D80269D20707D0019A01328E
:104100008A4201920AD80269D207DFD1002106E073
:104110000321BCF1010F15D10CE000BF0321826B1C
:10412000002B14BF22F4803242F480328263BCF14F
:10413000010F07D1826842F006028260826842F075
:1041400020028260084602B07047000080B54B78BC
:104150000A78012B2AD100EB4211D1F8003947F639
:10416000000CCEF6334C01F51061002B4FF0010E20
:1041700007D50B6843F000630B600B6843F0804386
:104180000B6002F00F02D0F83C380EFA02F29343B3
:10419000C0F83C38D0F81C3823EA0202C0F81C28CA
:1041A000086800EA0C0200200A6080BD00EB4213A0
:1041B00003F53061D3F800EB47F60003CEF6334346
:1041C00003F1707CBEF1FF3F4FF4803ED9DCD0E7B5
:1041D0000146D0F8000E20F00300C1F8000ED1F81F
:1041E000040820F002020020C1F8042870470000F3
:1041F0000146D0F8000E20F00300C1F8000ED1F8FF
:10420000040840F002020020C1F8042870470000B2
:104210002DE9F04F83B0DDF84CE00E9F0022BEF197
:10422000000FC0F80421C0F80821C0F80C21C0F824
:104230001021C0F81421C0F81821C0F81C21C0F8C2
:104240002021C0F82421C0F82821C0F82C21C0F872
:104250003021C0F83421C0F83821C0F83C210BD0FF
:10426000826B00F5006A22F400128263826B42F4D2
:104270000022826314E000BFD0F8042800F5006A31
:1042800042F00202C0F80428826B42F400128263FA
:10429000826B22F400228263866B26F4802686637A
:1042A0000026C0F8006EDAF80060012FCAF800603E
:1042B00006D1DAF80070002B18BF47F0010703E0C1
:1042C000DAF8003043F00307DDF83090DDF83C8089
:1042D00040F640550023C0F20305CAF80070019370
:1042E0004FF484630361019B0133AB4201931DD8FA
:1042F00003699B0617D5019B0133AB42019315D887
:1043000003699B060FD5019B0133AB4201930DD886
:1043100003699B0607D5019B0133AB42019305D886
:1043200003699B06DFD4002401E000BF01240023C1
:10433000029310230361029B0133AB4202931BD80B
:104340000369DB0619D5029B0133AB42029313D8F4
:104350000369DB0611D5029B0133AB4202930BD8F4
:104360000369DB0609D5029B0133AB42029303D8F4
:104370000369DB06DFD400E001244FF0000B0029C5
:10438000CAF810B0CAF814B0CAF81CB000F0FE8029
:1043900000F510673B684FF0006505EA13134FF610
:1043A0007F324E1E3B60C7F810B0BA6073D08B1ED0
:1043B000032B06F00302009404D22024002A42D1E9
:1043C00062E000BF26F003034FF0000E4FF090486C
:1043D0004FF67F3C4FF0000900EB0904D4F8205958
:1043E000043B08EAE575C4F82059C4F830E9C4F87C
:1043F00028C9D4F8405909F1800908EAE575C4F8DC
:104400004059C4F850E9C4F848C9D4F8605908EADA
:10441000E575C4F86059C4F870E9C4F868C9D4F8FF
:10442000805908EAE575C4F88059C4F890E9C4F8E1
:1044300088C9D1D109F12004DDF84CE0DDF83C80D9
:10444000DDF8309002B33D594FF0904C0CEAE57521
:104450003B193D5100244FF67F37012A1C619F60B4
:1044600012D01D6A022A0CEAE5751D621C639F6268
:104470000AD01F6C4FF0904505EAE7771F640027CC
:104480001F654FF67F379F64009C00294FF67F32EF
:104490004FF000657AD0D0F8003B002E05EA1313E8
:1044A000C0F8003B4FF00003C0F8103BC0F8082BE9
:1044B0006CD00239032906F0030C05D22023BCF18D
:1044C000000F3ED162E000BF009426F003030027F6
:1044D0004FF090464FF67F34002100BF4518D5F8C5
:1044E000202B043B06EAE272C5F8202BC5F8307B8E
:1044F000C5F8284BD5F8402B01F1800106EAE2729D
:10450000C5F8402BC5F8507BC5F8484BD5F8602B53
:1045100006EAE272C5F8602BC5F8707BC5F8684BF7
:10452000D5F8802B06EAE272C5F8802BC5F8907B9F
:10453000C5F8884BD2D1009C01F12003BCF1000FDB
:1045400024D000F53062D6584FF0904707EAE6765F
:10455000D118D65000264FF67F33BCF1010F0E6103
:104560008B6013D00A6ABCF1020F07EAE2720A629A
:104570000E638B620AD00A6C4FF0904303EAE2723A
:104580000A6400220A654FF67F328A64DAF8101056
:10459000B9F1000F21F48071CAF810106FF080415A
:1045A000C0F818B0416103D1816941F01001816107
:1045B000816943F60002C8F23C021143B8F1000FD2
:1045C000816103D0816941F008018161BEF1010F71
:1045D00005D1816941F0804141F0040181612046AB
:1045E00003B0BDE8F08F00000146806820F00102B2
:1045F00000208A6070470000F0B54B7891F800C049
:10460000012B27D14C6900EB4C1E00264FF6FF759D
:10461000DEF81079CFF6F876CEF20705002C0EF50D
:10462000106349D03E401E611E692E401E618E6897
:1046300005F10055B44284BF4E6134461E692540E1
:1046400046F400261E611E693543012A1D6141D1D1
:10465000086926E000EB4C13D3F8100B6FF312003F
:10466000C3F8100BD3F8100B6FF3DC40C3F8100B3A
:104670004F6903F53063002F1CBF8F684F611F69BE
:104680004FF6FF7047F400271F61CEF207008F68D6
:1046900000F100501E6938403043012A186103D1EF
:1046A000C868002818BF58614FF0044118680843D3
:1046B00018600020F0BD00BF07EA05041C611C69FA
:1046C00044F400241C611C6904EA06050024012A44
:1046D0001D61BDD0DEF80019002C41F00441CEF878
:1046E0000019E6D00CF00F01012202FA01F100F6E8
:1046F0003403DBE7D0F840C043F20B03C4F6547335
:104700009C4503D3D0F8003B002B1ED40023C0F8F7
:10471000103BD0F8103B012943F40023C0F8103BB4
:10472000D0F8103B43F01803C0F8103BD0F8103B12
:1047300043F0C043C0F8103B07D1C0F8142BD0F8A9
:10474000001B41F08021C0F8001B002070470000D2
:104750004B780A78012B00EB42100DD1D0F80029DC
:1047600022F40012C0F80029C97801F0FE010229E4
:1047700013D100F510600CE0D0F8002B22F40012E9
:10478000C0F8002BC97801F0FE01022905D100F51F
:104790003060016841F080510160002070470000E6
:1047A0004B780A78012B00EB421007D1D0F80019A2
:1047B000002900F5106107D50BE000BFD0F8001B01
:1047C000002900F5306104D41AB1086820F0804057
:1047D0000860086840F4001200200A60704700007A
:1047E000F0B54B7891F800C0012B35D1D1F814E029
:1047F00000EB4C1400254FF6FF76D4F81079CFF675
:10480000F875CEF20706BEF1000F04F510634DD027
:104810003D401D611D6935401D618D681F690EEBAE
:104820000506013EB6FBF5F50026C1F6F87606EA68
:10483000C5453D431D6175461E696FF3DF45354330
:104840001D61CD78012D3AD11D6925F0C0451D614E
:104850001D6945F0005531E000EB4C13D3F8107B97
:104860004FF6FF7C6FF31207C3F8107BD3F8107B71
:10487000C0F2070C6FF3DC47C3F8107B4F698D68FB
:10488000002F03F5306349D02F44013FB7FBF5F704
:104890000026C1F6F8761C6906EAC746BFB2264371
:1048A0006F431E6107EA0C063FE000BF3E401E61F9
:1048B0001E6946F400261E611E6935401D61012AED
:1048C00012D10A69002A18BFC4F81429C97801292D
:1048D00043D1D0F80818D4F80009C9054CBF40F0FE
:1048E000805040F0005037E000F510634FEA4C1460
:1048F0001D5945F004451D51CD78012D34D1D0F816
:104900000858E658ED054FF0805558BF4FF0005558
:104910003543E550A2B30020F0BD00BF1F6905EA92
:104920000C0637431F614FF400261F69012A47EA2E
:1049300006071F6103D1CA68002A18BF5A61C978E7
:1049400001290AD1D0F808081968C0054FF0805035
:1049500058BF4FF00050084318604FF004411868EA
:10496000084318600020F0BDBEF1000FD3D00CF05A
:104970000F01012202FA01F100F63403EFE700BF54
:104980005FEA0E42C7D0032313FA8EF64FF0FF33CF
:10499000C96803EB960300F580504FEA0C32032BF5
:1049A000C6F381030ED3B70827F003040F68043C55
:1049B00017504F6817508F681750CF6801F11001DA
:1049C0001750F3D1002BA6D00F68012B1750A2D09F
:1049D0004F68022B17509ED0896811500020F0BDFF
:1049E0000146806840F0010200208A6070470000A4
:1049F00081B040F640528901C0F203020023203109
:104A00000093016100990131914200911ED8016922
:104A1000890617D5009901319142009116D8016994
:104A200089060FD500990131914200910ED8016994
:104A3000890607D5009901319142009106D8016994
:104A40008906DFD4002001B0704700BF032001B009
:104A500070470000D0F8080800F0060180074FF00A
:104A6000020058BF0F20002908BF08467047000009
:104A7000406900F001007047D0F81818D0F81C0801
:104A8000084080B270470000D0F81818D0F81C0811
:104A90000840000C70470000D0F810C8D0F8343837
:104AA00001F00F0223FA02F2D20100EB4110D2B260
:104AB000D0F8080942EA0C010840704700EB4111A8
:104AC000D1F8081BD0F81408084070474169806984
:104AD0000840704710B5930802F0030E2CD05A1E00
:104AE000032A03F0030C0FD323F003034FF4805287
:104AF0008458043B0C6084584C6084588C60845803
:104B0000CC6001F11001F3D1BCF1000F14D04FF4CF
:104B1000805284580B46BCF1010F43F8044B05D179
:104B20001946BEF1000F0AD11EE000BF8258BCF149
:104B3000020F4A601AD10831BEF1000F14D04FF4B1
:104B4000805280580A46BEF1010F02F8010B04BFE3
:104B5000104610BD020ABEF1020F4A7004BF881C45
:104B600010BD000C88700331084610BD4FF4805210
:104B700082588A600C31BEF1000FE0D1F4E70000EA
:104B8000B0B50446C06820F0C040E06091B1012992
:104B900026D1E068002540F00050E0600120FBF7DE
:104BA00041FE6069C00705F1010014D1312D0546B1
:104BB000F4D310E0E068002540F08040E06000BFE2
:104BC0000120FBF72FFE6069C00705F1010002D04C
:104BD000312D0546F4D33238B0FA80F04009B0BD2B
:104BE0000120B0BD0246D0F8000801F07F0120F49A
:104BF000FE60C2F80008D2F8000840EA0111002067
:104C0000C2F8001870470000022A02460ED145F291
:104C10004030CFF6277043F200530844C0F20C0333
:104C200098420FD24FF4705002E000BF4FF4105082
:104C3000D16821F47051D160D16801430020D16066
:104C4000704700BF41F64060CFF61B7044F240232E
:104C50000844C0F20F03984202D24FF46050E7E7D5
:104C6000A1F5740044F68073A0F51050C0F2120351
:104C7000984203D24FF45050DAE700BFA1F183709D
:104C80004DF22063A0F5E740C0F21303984203D22F
:104C90004FF44050CCE700BF4BF26060CFF6E560C8
:104CA0004EF260330844C0F21603984202D24FF429
:104CB0003050BDE74DF20030CFF6CE6047F2407382
:104CC0000844C0F21B03984202D24FF42050AFE7D1
:104CD00045F6C030CFF6B36049F2C0130844C0F2C5
:104CE0002103984202D24FF41050A1E7A1F1B7700E
:104CF00047F22053A0F55850C0F23803984203D22F
:104D00004FF4005094E700BF45F2E040CFF6596001
:104D100049F6E0430144C0F241034FF4C0509942C8
:104D200038BF4FF4E05083E710B5DDF808C0BCF1A0
:104D3000000F01D0002010BD002BFBD003F1030EAB
:104D40004FF0FF3303EB9E0300F580541203032B57
:104D5000CEF3810C10D34FEA9E0323F0030300BF70
:104D60000868043B10514868105188681051C868A1
:104D700001F110011051F3D1BCF1000FDAD0086835
:104D8000BCF1010F1051D5D04868BCF1020F105191
:104D90001CBF88681051002010BD0000FEE7000015
:104DA00084B044F2402800270026C0F20F08C4F265
:104DB0000207FCF731F8FEF75BF8FDF76DFFFEF731
:104DC0001BF8FDF7DDFFFDF7B9FF40F68C7540F2EB
:104DD000D019C2F200055320C2F2000968602846CB
:104DE000C9F80850C5F80C80FDF7ECFA2846FDF725
:104DF00019FBD9F80800FDF7EDFBD9E902010068BD
:104E0000406AE1FB0806C9E90606C9E9080640F65A
:104E10003030C2F2000000F089FA002000F078FA89
:104E200038460121FBF7F0FD40F2000A0028C2F2EB
:104E3000000A04BF07208AF8000005200A2100F0BC
:104E400021FC40F27404C2F20004D4E900120FF213
:104E50005C40012300F0D8FD0520202100F012FC69
:104E60009AF80030D4E900120FF258400B2B4FF0A3
:104E700001030FF2444608BF304600F0C5FD40F67E
:104E80003030C2F2000000F005FC00BF38460121BE
:104E9000FBF7BAFD0028F9D09FED1E8A4FF0000BFA
:104EA00038460121FBF7B0FD9AF8011088420AD07C
:104EB00038460121FBF7A8FD00288AF8010004BF4D
:104EC000012089F80100D9E9020200230168486A3B
:104ED000D9E90C56E2FB0803401B73EB060099F876
:104EE000000005D320B1022389F8013014E000BF8F
:104EF00099F8013013B3022B0ED0012B19D1B0FA5F
:104F000080F00123400989F80230A9F804B040007C
:104F10000DE000BF002474490123022889F8023003
:104F200004D0012805D1022001E000BF012089F84A
:104F30000000012389F801B089F8033099F80230A4
:104F4000012B40F08180022889F802B047D14B6ADA
:104F5000A2FB080242F600751B18C5F6681542F15F
:104F60000006ED1846F10004C9E90C54C9E90E36F3
:104F7000BAF80230496A4FF47A767343401842F126
:104F80000001C218544641F10003C9E91401CA46A0
:104F90002078082140F660050AF8101FC2F20005CB
:104FA000C9E9122389F8120028465146082289F8D7
:104FB00013B0FEF7EFF93220FBF734FC28465146D8
:104FC00008228AF800B0A9F812B0A246FEF7E2F96A
:104FD000B9F80400411C99F80000A9F80410012850
:104FE0003DD1D9E902014AF200360068C1F2E1166A
:104FF000406A00230246E1FB6806E1FB0823C9E999
:105000000C064E469AF80000082140F6600406F8A7
:10501000101FC2F20004C9E90E2389F812002046CD
:105020003146082289F813B0FEF7B4F93220FBF7B5
:10503000F9FB20463146082286F800B0A9F812B0E4
:10504000FEF7A8F999F80000012808D107F50060DB
:105050004FF400510022FBF7E5FC99F8000002280C
:105060004CD1D9E90201D9E9122300680026406A2F
:10507000E1FB0806801A76EB030040D307F50060D9
:105080004FF40051FBF7C6FCD9E902064BF6C051BC
:10509000CFF6F071A6FB01124FF0FF34D9E90C53A3
:1050A00006FB042204684919606A5A41BAF80230C2
:1050B000081A4CF6CD4103FB01F14FEAD14505EB4F
:1050C000C501A0FB010362F1000202FB01314EF2B7
:1050D0006032C0F216020023FBF768F9626A00240E
:1050E0001346E6FB6825801809F14802E6FB083400
:1050F00069410BC299F80000C9F8544020B199F8F1
:10510000030060B968E000BF07F500604FF400518C
:105110000122FBF787FC99F8030000285CD099F87E
:10512000000089F803B098B3012841D0022853D178
:10513000002000F0EDF840F63036C2F200063046AE
:1051400000F0A8FA05200A2100F09CFA40F274044D
:10515000C2F20004D4E9001264A0012300F054FC60
:10516000304600F097FAB9F804200DF10105284601
:1051700062A1FBF755F95A20202100F083FAD4E907
:1051800000122846012300F03FFC304622E000BF19
:10519000002000F0BDF805200A2100F073FA40F26B
:1051A0007400C2F20000D0E9001249A00BE000BF79
:1051B00005200A2100F066FA40F27400C2F20000F5
:1051C000D0E9001245A0012300F01EFC40F630306B
:1051D000C2F2000000F05EFAD9E90201D9E9182311
:1051E00000680025466AE1FB0865B21A75EB030208
:1051F000FFF456AE99F80020002A3FF451AE4BF66A
:10520000C052CFF6F072A1FB0223D9E90C654FF032
:10521000FF3401FB0431406A92196941101A61F1AF
:10522000000100F04FFC00EE100A80EE080A00F0CA
:1052300011FCBDEEC00A0520202110EE104A00F03E
:1052400021FAA0B248F689014843420D1101A1EBB1
:105250005050A4EB80000DF1010483B2204629A137
:10526000FBF7DEF840F27400C2F20000D0E9001251
:105270002046012300F0C8FBD9E9020148F2A066EC
:105280000068C0F20106406A00220346E1FB68069E
:10529000E1FB0832C9E9180640F63030C2F20000DE
:1052A000C9E91A3200F0F6F9FAE500BF506F6D6FE8
:1052B000646F726F0000000074696D657220204D8C
:1052C0004143000074696D6572202057494E00000B
:1052D0005041555345442020200000004348494C8C
:1052E0004C2048415244212020200000574F524B6F
:1052F0002048415244212020200000002530336402
:1053000000000000253032643A253032640000008D
:1053100080B50246002840F24820C2F200004FF457
:10532000806118BFFF22FBF78FF980BD2DE9F04F98
:1053300085B004466420FBF775FAAE208DF81300A3
:105340004FF00A0901250DF11307204678210022AC
:105350000123CDE90075CDF808904FF00008FBF768
:1053600029FC06464FF0200A20467821002201231E
:105370008DF813A0CDE90075CDF80890FBF71AFC65
:1053800006444FF0100B20467821002201238DF8AF
:1053900013B0CDE90075CDF80890FBF70BFC06447F
:1053A000B0208DF813002046782100220123CDE99A
:1053B0000075CDF80890FBF7FDFB0644C8208DF87A
:1053C00013002046782100220123CDE90075CDF895
:1053D0000890FBF7EFFB06442046782100220123CA
:1053E0008DF81380CDE90075CDF80890FBF7E2FB4E
:1053F000064420467821002201238DF813B0CDE920
:105400000075CDF80890FBF7D5FB064440208DF8D9
:1054100013002046782100220123CDE90075CDF844
:105420000890FBF7C7FB064481208DF81300204647
:10543000782100220123CDE90075CDF80890FBF713
:10544000B9FB0644FF208DF8130020467821002286
:105450000123CDE90075CDF80890FBF7ABFB0644BE
:10546000A1208DF813002046782100220123CDE9E8
:105470000075CDF80890FBF79DFB0644A6208DF83B
:1054800013002046782100220123CDE90075CDF8D4
:105490000890FBF78FFB0644A8208DF813002046E8
:1054A000782100220123CDE90075CDF80890FBF7A3
:1054B00081FB06443F208DF813002046782100220E
:1054C0000123CDE90075CDF80890FBF773FB064486
:1054D000A4208DF813002046782100220123CDE975
:1054E0000075CDF80890FBF765FB0644D3208DF8D6
:1054F00013002046782100220123CDE90075CDF864
:105500000890FBF757FB0644204678210022012330
:105510008DF81380CDE90075CDF80890FBF74AFBB4
:105520000644D5208DF8130020467821002201235F
:10553000CDE90075CDF80890FBF73CFB0644F02060
:105540008DF813002046782100220123CDE9007553
:10555000CDF80890FBF72EFB0644D9208DF81300F8
:105560002046782100220123CDE90075CDF808906E
:10557000FBF720FB064422208DF8130020467821FB
:1055800000220123CDE90075CDF80890FBF712FB4E
:105590000644DA208DF813002046782100220123EA
:1055A000CDE90075CDF80890FBF704FB0644122006
:1055B0008DF813002046782100220123CDE90075E3
:1055C000CDF80890FBF7F6FA0644DB208DF81300BF
:1055D0002046782100220123CDE90075CDF80890FE
:1055E000FBF7E8FA064420467821002201238DF8D3
:1055F00013A0CDE90075CDF80890FBF7DBFA06445F
:105600008D208DF813002046782100220123CDE95A
:105610000075CDF80890FBF7CDFA064414208DF8FC
:1056200013002046782100220123CDE90075CDF832
:105630000890FBF7BFFA0644AF208DF81300204610
:10564000782100220123CDE90075CDF80890FBF701
:10565000B1FAC64211D140F24820C2F200004FF424
:105660008061FAF7F9FF204600F014F840F2C81004
:10567000C2F200000025C0F80280284605B0BDE84F
:10568000F08F000040F2C812C2F2000250809180F8
:10569000704700002DE9F04F85B040F248260446DF
:1056A000C2F200060A2701250DF113084FF0640924
:1056B0004FF0800A4FF0000BABF150008DF8110055
:1056C0000DF11100CDE900052046782100220123CB
:1056D0000297FBF76FFA00208DF812000DF112000F
:1056E000CDE9000520467821002201230297FBF72F
:1056F00061FA10208DF81300204678210022012342
:10570000CDE900850297FBF755FA20467821402223
:105710000123CDE9006ACDF80890FBF74BFA0BF1B5
:10572000010BBBF1080F06F18006C5D105B0BDE83D
:10573000F08F00002DE9F04F8AB040F2C817C2F296
:105740000007B7F802E05EFA81F67F2E05D8BE8822
:10575000079656FA91F63F2E04D900200AB0BDE80C
:10576000F08F00BF009038780492C1F30726B3FA97
:1057700083F200284FEA52121CBF13460120002E6C
:10578000CFB20696019700F03381019F002F00F001
:105790002F81009F5040069E08900198203F01F005
:1057A000030140F248287743421E0591401A002128
:1057B000C2F2000803970292099008E042EA0C0244
:1057C00008F8002006980131814200F01181079805
:1057D0000844C2B23F2AF5D8039A049F0A4437F816
:1057E00012B000F00702012707FA02FC029A8CF0BF
:1057F000FF09032A4FF4786202EA001A06D2002059
:10580000059A002A40F08D80DCE700BF002207E007
:1058100044EA0C0408F80240099C6A1CA2427BD0AE
:1058200010460BFA00F472442404D5B202F080044E
:105830000AD5ACB905EB0A0418F80450012B0BD1BA
:1058400045EA0C050AE000BF54B905EB0A04089EBE
:1058500018F80450002EF3D105EA090508F80450A1
:10586000451C561C0BFA05F7F4B23F0406F08006FF
:1058700008D596B9544418F80460012B09D146EABA
:105880000C0608E04EB95444089F18F80460002F35
:10589000F5D106EA090608F804600135961C0BFAF2
:1058A00005F7F4B23F0406F0800609D59EB95444CA
:1058B00018F80460012B0AD146EA0C0609E000BF83
:1058C0004EB95444089F18F80460002FF4D106EA3A
:1058D000090608F804600135D41C0BFA05F6E2B29B
:1058E000360404F0800409D5002C7FF495AF5244AF
:1058F00018F80240012B3FF48BAF09E0002C7FF435
:105900008BAF5244089E18F80240002E7FF480AFFF
:1059100004EA09047EE700BF0430059A002A3FF438
:1059200051AF00EB0E040BFA00F5E2B22D0404F0C7
:10593000800409D59CB9524418F80240012B0AD1C1
:1059400044EA0C0409E000BF4CB95244089D18F821
:105950000240002DF4D104EA090408F80240059A37
:10596000012A3FF42FAF441C04EB0E050BFA04F49C
:105970002404EAB205F0800408D594B9524418F81A
:105980000240012B09D144EA0C0408E04CB952440E
:10599000089D18F80240002DF5D104EA090408F822
:1059A0000240059A022A3FF40DAF821C02EB0E045E
:1059B0000BFA02F21204E0B204F080020AD5002AC7
:1059C0007FF400AF504418F80020012B3FF4F6AEEE
:1059D0000AE000BF002A7FF4F5AE5044089C18F896
:1059E0000020002C7FF4EAAE02EA0902E8E600BFDC
:1059F000019840F2C8117044C2F2000148805DF87D
:105A0000280BBDE8F08F0000F0B581B01C4603788C
:105A1000A3B115460E46471CD8B231462A46234646
:105A2000FFF788FE17F8011C884204D117F8013BE4
:105A3000002BF1D10021084601B0F0BD002108463D
:105A400001B0F0BD40F2D010C2F20000C1680131D7
:105A5000C160704710B52DED028BB0EE408A18EE94
:105A6000100A00F0AFF800EE900A18EE100AB7EE38
:105A7000001A38EE600A10F0004F07D0B5EEC00AE9
:105A8000F1EE10FAC8BF70EE810A06E0B5EEC00A6A
:105A9000F1EE10FA38BF70EEC10A10EE901A18EE4F
:105AA000100ABDEC028B61F31E0000EE100A10BD5F
:105AB00030380A2801D201207047002070474FF08B
:105AC0007E5209E011F0004204D54042C1F10001CC
:105AD00038BF491E42F07E5202F170620B0012BFC5
